:020000040000FA
:100000000C94140B0C94DC1A0C94B51A0C943C0B45
:100010000C943C0B0C943C0B0C943C0B0C943C0B44
:100020000C943C0B0C943C0B0C943C0B0C943C0B34
:100030000C943C0B0C943C0B0C943C0B0C943C0B24
:100040000C946B1A0C943C0B0C943C0B0C943C0BD6
:100050000C943C0B0C943C0B0C943C0B0C943C0B04
:100060000C94031B0C943C0B00407A10F35A00A034
:10007000724E18090010A5D4E80000E87648170071
:1000800000E40B54020000CA9A3B000000E1F505B1
:10009000000080969800000040420F000000A086FB
:1000A00001000000102700000000E803000000002D
:1000B0006400000000000A000000000001000000D1
:1000C00000002C76D888DC674F0823DFC1DFAE59EB
:1000D000E1B1B796E5E3E453C63AE651997696E87E
:1000E000E6C28426EB898C9B62ED407C6FFCEFBC02
:1000F0009C9F40F2BAA56FA5F490055A2AF75C932D
:100100006B6CF9676DC11BFCE0E40D47FEF520E662
:10011000B500D0ED902E0300943577050080841E45
:10012000080000204E0A000000C80C333333330FA0
:10013000986E12831141EF8D2114893BE65516CF3D
:10014000FEE6DB18D1844B381BF77C1D901DA4BB49
:10015000E424203284725E228100C9F124ECA1E5FE
:100160003D27005EBCE2613FDD83C29C7E20A3FD93
:100170001F41009D23BE46DB65F88C11AF32CA5784
:10018000E97400000000240027002A00000000009D
:10019000250028002B0000000008000201000003D9
:1001A0000407000000000000000000000000230021
:1001B00026002900040404040404040402020202C8
:1001C000020203030303030301020408102040801A
:1001D000010204081020010204081020BF000303DC
:1001E0000404040505090F00FD0AFD0BFF01B90316
:1001F0005D0AA8200500C8332108A20B331E440263
:100200002208357A33242C02231087197394249200
:100210008B924472519248002413B7F9F282154927
:100220008412231669114A44528C012514A80873BC
:100230008225C94814928AA5A29068222A460026DF
:1002400012A808B3861299444695924636896844A6
:10025000112707426B330E01280DC5FAF2446A22BA
:100260009946995001290EC5FA32846A4299269915
:10027000480D002A0B572973D446A79944022B0C2A
:100280007818F3C46A8798580D002C0953DB322C78
:10029000120A002D071848330E012E0934FA722471
:1002A0001409002F0DA808B3A562A9B254592A0653
:1002B0003010A808F3A4349144C85122925165002B
:1002C000310AA609B36423A23E19320EA808B36806
:1002D0002289502CD5EB21003312A808734A3239F9
:1002E000402A9C03E400314D54023411A80873A540
:1002F000439A44A422931CA26215003512A8083325
:100300002E6295D1480E101325221909003614A823
:1003100008B36822893022968C461221512292918C
:1003200000370DA808330E615565A9581B00381415
:10033000A808B3682289502292D1441221512292F6
:1003400091003913A808B3682289902811AD882537
:1003500041894846023A0C84FA722414394C42917D
:10036000003B0DA4DA722414396C325291003C091E
:10037000A60933653A4A753D0A4828330E71A443ED
:10038000003E0AA60933A43ACA74043F0DA70973B4
:100390002A329A54A81DAA064014A808B3682289D4
:1003A0009064915024A4891C20135500410EA80884
:1003B000F3A4349144C87828320A4212A808334C76
:1003C0003289902631C9244236890900430EA80893
:1003D000B34A32EA58D7884C5401440DA808334C2C
:1003E000328990DF242600450CA709330E52558B25
:1003F00054EB01460CA808330E6365935867004719
:100400000FA808B34A32B2B6225122135500480B46
:10041000A80833841C0F451E054909A609334C4220
:10042000FD644A0CA609B3887A9C514423004B13FF
:10043000A80833843489484546244A6422358950C3
:10044000004C09A70933A4FAEB014D10A808338426
:10045000A5834542915024448E024E10A80833844F
:1004600035938922A14848B646014F0EA808B368C3
:100470002289908F12918C04500DA808332E42C609
:100480008344AC33005110A808B36822899017093F
:1004900089229251025210A808332E42C683A42604
:1004A00052930889025311A808732C42B21C6007AA
:1004B00088C544890500540AA808330E31B1FE06E8
:1004C000550CA8083384FC5122929100560FA808BD
:1004D00033848C1291DE8854B10C00570FA8083376
:1004E00084BC4828128AE4602A0A5811A808338478
:1004F00044894846154B6922899028590EA808332B
:10050000844489484615EB0D005A0AA70933AE8A80
:100510007A951E5B09C5FA326EFAB7025C13A80819
:1005200033E400B11C200788E50039402C07085D42
:1005300009C5FA326AFAB7035E0A4669B36414D190
:1005400030005F0718F8320E016007348A33640AFE
:10055000610E7808B34A32B1E420A44D280262103B
:10056000A80833C45A46238990B124918C00630DA6
:100570007808B34A32B23A4026AA00640EA808B3FB
:10058000354D948A8C12D18A00650F7808B36822A1
:1005900089F05007C8441500660DA808F368229D2D
:1005A0008546B146006712A8D8722AB39A44262A13
:1005B000C9011621516201680DA80833C45A4623A7
:1005C00089904701690BA609B38472D0504F066A1F
:1005D0000ED7D972D561545D696C920A006B0FA772
:1005E0000933A49A244A349A44A422136C09A60914
:1005F0007386FA93016D1078083322BA50241409D7
:1006000045429150146E0C78083324A39144C8A33A
:10061000006F0E7808B36822899051229291007081
:1006200011A8D83224A39144C85892484662650064
:10063000710EA8D8B2264A4546896845AC01720CAD
:1006400078083324A49144AC2B00730E7808732CE3
:10065000423AC00E204A2C00740D9808B3C442A33D
:100660005827190500750B780833843C4A442B023F
:10067000760D780833844489481B912A03771078D3
:100680000833842C128A8422394C441200780F7863
:1006900008338412918C2AA589244201790EA8D8A6
:1006A00032843C4A442B629AA8047A097609338C36
:1006B000321D0D7B0DC5FAB226324D32A14CE3003E
:1006C0007C07A20B331E0C7D0EC5FA3286328D32AA
:1006D000914CCB08007E0A3878734614096902A051
:1006E0000500C833A109A20C3344878300A21087F8
:1006F00009734315512526898D24A52800A310A828
:10070000F8F268226569512CAC450E5200A40F77AF
:100710002933640789522C24911C6402A510A8086F
:10072000338444894846330A8D623500A609B2FCF9
:10073000320EC34300A710B6F97228222A45C424FA
:10074000A192241400A808269933442401A917B8BB
:1007500008B36816E1842209452441492822A10CE6
:1007600025361200AA0A7539338887D0B500AB1335
:100770008818F3242289482292C82442895022945E
:1007800008AC075729335E35AD061649330CAE1752
:10079000B808B36816E1842209452414499224223A
:1007A000194A6C2400AF072699330E05B00A466A31
:1007B000732822928402B10EA808F3C46A87834C7E
:1007C000AC763808B20B754973262199485B01B3A2
:1007D0000D7549732621994838924C00B408348A23
:1007E000B3244A00B50DA7D93264BC550E91A92A8D
:1007F00000B612A709730E87898B6422928824227F
:10080000894822B709333B7322930800B80935DAC7
:10081000F228920900B90974497324235D08BA0AC1
:1008200065497326128A645CBB1488183324428994
:10083000502294C8242289482292C800BC10B808CB
:1008400073A4638D1199654893C8CA02BD0EB80898
:1008500073A4632DA39149AAB900BE13B808738687
:1008600021B1540E10A948166912595900BF0EA79C
:1008700009F3A472A850AB8C26A900C012C8087353
:10088000E40039400EA6892442E2A1C828C10FC85D
:100890000873B583692289907828320AC212C80881
:1008A000F3A434911C48134984C443915100C312EA
:1008B000C808B3442153480EA5892442E2A1C828A0
:1008C000C410B8087344DA81349144483C141905C3
:1008D000C512C808F3A4A160282AA5892442E2A170
:1008E000C828C610A808F34A34894C22523A8CF41E
:1008F0008900C712D8D8B24A32EA58D7884C5495E2
:1009000049843300C80EC70973C4EAA083546A91AE
:10091000AA1EC90DC70933B5C30E52A945AA7ACA82
:100920000FC709F3842475C0412AB548550FCB1071
:10093000B709734412911C70904A2D52D503CC0C08
:10094000C60933A4EA1093504F06CD0BC609F3B481
:10095000834C423D19CE0DC609B3641491D824D4FA
:100960009301CF0CB609334424B149A82703D0130F
:10097000A908736C4A4289F07492082542894C6434
:1009800002D112C808B3442153480E13D64C17CADB
:10099000C95614D213C80873E40039400EA689243E
:1009A000428E12918C04D310C80873B583692289D2
:1009B00090A344242301D413C808F3A434911C4801
:1009C0001349841C2522190900D513C808B34421F2
:1009D00053480EA58924428E12918C04D611B80872
:1009E0007344DA81349144C85122929100D70E8722
:1009F0000933A23389DA7026519B06D818C8F8F259
:100A000001218B48222B4548114A8812AA494412D9
:100A1000531C00D911C80873E40039400E14F25178
:100A200022929100DA0EC80873B503857C9488641D
:100A30002400DB10C808F3A434911C24E4A344244C
:100A40002301DC0FB8087344DA41423E4A443212B3
:100A500000DD0EC80873B503554432AA583700DECE
:100A600011A7093388D2928A48229294A4421A008C
:100A7000DF0FA709B348221A49A2A422E33201E0FA
:100A800013B80873E40039400E2E05C592839036E2
:100A9000A108E111B80833A5EA08A5A0587210D240
:100AA000261401E212B808F3A434911C580A8A25CE
:100AB00007216D4211E313B808B3442153480E2DAA
:100AC00005C592839036A108E411A8087344DA8121
:100AD000A5A0587210D2261401E513B808F3A4A1FA
:100AE00060282A2D05C592839036A108E612780861
:100AF0007326929044269158D424A2886402E71168
:100B0000A8D8B24A32B23A4026AACA24C21900E88A
:100B100014B80873E40039400EA68924C2431D208E
:100B2000135500E912B80833A5EA0834914478A8AF
:100B30000364A20A00EA13B808F3A434911C481312
:100B40004984873A4026AA00EB12A8087344DA8148
:100B500034914478A80364A20A00EC0BB60933A4CC
:100B6000EAA0A19E0CED0AB609F3B4C3867A32EE70
:100B70000DB609B36414911C30D49301EF0CA6098F
:100B80003344243960A82703F016C808336231893A
:100B9000703A94C862C292A8489488642400F11103
:100BA000B808B3442153480E938C4612218F02F2A9
:100BB00013B80873E40039400EA6892442468948D8
:100BC0004602F311B80833A5EA08349144C8281145
:100BD000C94800F412B808F3A434911C481349849E
:100BE0008C12918C04F513B808B3442153480EA518
:100BF0008924424689484602F611A8087344DA81DE
:100C0000349144C82811C94800F70EA808F3C472EB
:100C1000D4C3418E2A9601F81298F8F201218B482C
:100C200022B2484C1291C41407F910B80873E400BA
:100C300039400E14F22811AD08FA0EB80833A5EAAF
:100C400050218F12D18A00FB0FB808F3A434911CF5
:100C500024E451225A11FC0EA8087344DA41421EC2
:100C600025A21501FD11E8D832A5EA50218F12D135
:100C70008A98262A01FE13C7D932A6AA25159144BF
:100C80002411494A52E11000FF11D8D87244DA41C8
:100C9000421E25A215314D540200000004FFFF0042
:100CA00000BF0003020304030504070E00FE0AFE52
:100CB0000BFE018303000967200500F2072107D11D
:100CC000C3C72111220723DF47E2122313D5C24FE6
:100CD00029899264504A493228A5244A12002413D3
:100CE0005EBE5F36245122258D63222552920C610F
:100CF00004250F56C28F242592B486E964892C00FE
:100D0000260E56C29716F56692122D894C012706BB
:100D1000A1DFC710280B6CBB5F548BB28E595829CA
:100D20000CECBA47580BB34E5954032A0BBDC657A7
:100D3000A5B2654B53042B0ABDC657581AA4B0047C
:100D40002C0822BB879228002D068DD2C7202E08A2
:100D50001BBF4FB224002F0E6EBA6F310DD3621A33
:100D6000A6619A02300D56C2971625A18F49944963
:100D700000310BD5C2572625619F0601320D56C2A0
:100D8000CF9084621AA661E330330D56C2C7352C6A
:100D9000CEA928264302341056C267A825591275D9
:100DA000C992614C1300350F56C2C7214D07254C1F
:100DB00053514C8604360E56C2D714A69545138D52
:100DC000C99000370D56C2C7354CC3344CC33404E8
:100DD000381156C2CF90846212655A9484C6644812
:100DE00000390E56C2CF90846ECA928A5A34013AA4
:100DF0000B43C34FB2E448B224003B0942BFC710C3
:100E00002A89023C08CDC267D6B5033D0826CEC765
:100E10001D1D063E09CDC247DAAD23003F0D56C267
:100E2000CF9084626B1D4C2300401256C2D7944968
:100E300043122991122991B4C44300410D56C2971F
:100E40001625A1711844C700421256C2C710654941
:100E5000A825439425A12D192200430D56C2CF90F9
:100E600084D68E62322400440D56C2C7106549E80C
:100E7000B7648800450C56C2C721AD0E51DA3A0C52
:100E8000460B56C2C721AD0E51DA15470D56C2CFDB
:100E90009084D6D210DA9425480B56C247E8380C15
:100EA000A2C700490AD5C2C72085FD34084A0C569E
:100EB000C2DF98F692255934014B1056C247A82537
:100EC000512513932CAA25A1184C0956C247DA5F65
:100ED00087014D0C56C247380DD1E2D163004E0E4A
:100EE00056C247286E9B1249897614034F0C56C28E
:100EF000CF9084FE980C0900500C56C2C7A0848E77
:100F0000C392B602511066BACF90841E87484A3405
:100F10006548E300520E56C2C7A0848EC312D59214
:100F2000500C530D56C2CF908466473119120054AD
:100F30000A57C2C7218BFB1B00550A56C247E81F40
:100F4000932101560C56C247E89844BD89260057A4
:100F50000CD5C247E6974449942E00580E56C24716
:100F60002826519BA8452DA118590CD5C247664B80
:100F70004A491676025A0C56C2C735AC86D5301D82
:100F8000065B0A6CBBC7A0F5DF86005C0E6EBA4735
:100F90001AA7715A4EE3344E035D0AECBAC790F5B6
:100FA000DF06015E091EE297162561005F060EBA94
:100FB000C70160061BE34756610D3EC2CF908469AE
:100FC000328C623208620D56C247DAB268A271539F
:100FD0001600630C3EC2CF90846A63322400640B17
:100FE00056C26FCBA28D6ECA12650E3EC2CF9084E0
:100FF000E230A861322400660C56C29F1655B341F8
:101000004BBB0167114EBACFA2255992455B982C74
:1010100061322400680B56C247DAB268A2C7006981
:101020000BD5C2579823624F83006A0CE5BA671D3F
:10103000113B6A5AB2006B0E56C247DA9644956C61
:101040008B6A49186C09D5C28FD89F06016D0EBDF9
:10105000C287D2A2244AA2244AA2056E0A3EC247EF
:10106000B268A2C7006F0B3EC2CF90841E932101CD
:10107000700D4EBA47B268A27153963405710B4E8B
:10108000BACFA28D6ECA9216720A3EC247B268A249
:10109000DA0A730E3EC2CF9084492C2761322400B5
:1010A000740C56C2575A1BB4B453A60075093EC2FD
:1010B00047E89BB204760CBDC247664B4A491646C8
:1010C00000770DBDC2476649944449942E00780DBF
:1010D0003EC247282651A645492806790D4EBA47F3
:1010E000E84D5952311912007A0A3EC2C7B1350C87
:1010F00087017B0B6CBB9792750AB38E027C07E964
:10110000BBC787007D0CECBA8798758CB22E120095
:101110007E0B26DE4F984452122600A00500F207EF
:10112000A108D1C387320C01A2124EBE5738242524
:10113000254BB2244BA264C83200A30DCDC29754F4
:1011400009B3210AB3212AA40C36CA47980C51A727
:10115000210903A510D5C2479694922C1AA4689031
:10116000C21200A608D1C3C7100D01A7135EC2CFDB
:10117000908449AC45499844999C84C99000A8073B
:1011800094E6472405A9105EC2CF90848A320DD917
:10119000D3624C8604AA0DC5CECF92258326294A58
:1011A0003A08AB0F3EC25F1225511225611226612B
:1011B00012AC07A5C2C72036AD068CD2C710AE143C
:1011C0005EC2CF908483320DD1B04C43344463323D
:1011D0002400AF068DE6C720B009A4DE8F1249892E
:1011E00002B10BB5C257180D52180D02B20ABCD28B
:1011F0008F126551DB10B30CBCD28F126589282584
:101200000A00B4071BE3575202B50BC5BA47E6B64E
:101210002C891802B615E5BACFA0244AA2244A4563
:10122000899228899228899268B70689D74700B899
:10123000071ABB4FA200B9083BD34F227519BA0A4F
:10124000B4D28F1249893A04BB103EC247122661BC
:101250001226511225519201BC1056C24FA8255199
:101260009730AA2815690803BD1056C24FA825510A
:101270009730C9949A964403BE1156C2871655A258
:101280004C52C22889948AB406BF0D5EBA579A831D
:101290006963514C8604C00F66C2579C635A94849C
:1012A000E230888E01C10F66C25F98835A9484E24F
:1012B00030888E01C21066C29716E5901625A138B7
:1012C0000CA26300C30F66C28F6487B42809C5618E
:1012D000101D03C40F5EC24F94435A9484E23088B9
:1012E0008E01C50F5EC29716655A9484E230888ECF
:1012F00001C60D56C2D790943A0D43D49F06C70E2F
:1013000066BACF9084D68E6232843500C80F66C22A
:10131000579C23C390560725AD0E03C90F66C25FC5
:101320009843C390560725AD0E03CA0F66C29716A1
:10133000E5C021AD0E4A5A1D06CB0E5EC24F940386
:1013400087B43A28697518CC0CE5C24F9A03831408
:10135000F66910CD0CE5C25F1D18A4B04F8300CE16
:101360000CE5C25796C48314F66910CF0BDDC24F4B
:101370007990C23E0D02D01457C2CF9095C2241C62
:10138000A4244CC2244CB2688800D11266C28F6477
:1013900007B44D8994484AA4444AB44DD20E66C25B
:1013A000579C434312FA31191200D30E66C25F985C
:1013B000634312FA31191200D40E66C29716E5C8BB
:1013C00090847E4C8604D50E66C28F64478624F4D2
:1013D00063322400D60E5EC24F94234312FA3119B1
:1013E0001200D70D3FC2479A6495B49255D200D8E7
:1013F0001676BA6F6548B22991122951222552A258
:101400002D19923405D90C66C2579C23A13F26435F
:1014100002DA0C66C25F9843A13F264302DB0D66E9
:10142000C29716E540E88FC99000DC0C5EC24F946D
:1014300003A13F264302DD0EE5C25F1DC8B4A4949C
:1014400064612700DE0D56C2479A0E4AE8382C69BF
:101450000ADF0F56C29716F5B445B5244BB26101A9
:10146000E00F56C2579C434312A6C9308AC920E1F7
:101470000F56C2671D1A92304D86514C0601E2107C
:1014800056C29716E5C8908469328C623208E30F21
:1014900056C28F644786244C9361149341E40F4EE7
:1014A000C24F94234312A6C9308AC920E5115EC2F7
:1014B0009716653A3424619A0CA3980C02E6103F03
:1014C000C2CFA04425294906298B2A8302E70D4E65
:1014D000BACF90846A6332843500E81056C2579CB4
:1014E0004343128AC3A086C99000E91056C25F9890
:1014F0006343128AC3A086C99000EA1156C29716A8
:10150000E5C89084E230A861322400EB104EC24F4F
:10151000942343128AC3A086C99000EC0BD5C24F16
:101520009A23624F8300ED0AD5C25F1D117B1A0416
:10153000EE0BD5C28F5407C49E0601EF0ACDC24FF1
:101540001D107B1A04F00DDDC24FAD922683E62DEF
:101550005900F10C56C28F64079245133D06F20DF7
:1015600056C2579C4343127A4C8604F30D56C25F11
:10157000986343127A4C8604F40E56C29716E5C857
:1015800090841E932101F50E56C28F64478624F481
:10159000980C0900F60D4EC24F942343127A4C86E4
:1015A00004F70A2EC2978E0C3B2201F8135EBA6F25
:1015B000180D499448891229D1960C499A02F90BC1
:1015C00056C2579C23A16FCA12FA0B56C25F9843AA
:1015D000A16FCA12FB0C56C29716E540E89BB204F5
:1015E000FC0B4EC24F9403A16FCA12FD1266BA5F84
:1015F0009843A19864499425D918D53400FE0E6605
:10160000BA47DAB268A27153963405FF125EBA4F38
:101610009403A19864499425D918D534000000009A
:1016200004FFFF000000221C11241FBECFEFD8E0F2
:10163000DEBFCDBF11E0A0E0B1E0E8ECF6E402C00F
:1016400005900D92A83BB107D9F727E0A8EBB1E0D0
:1016500001C01D92A036B207E1F71BE0C4E1DBE058
:1016600004C02197FE010E944623C331D107C9F768
:101670000E94241D0C9462230C940000662329F020
:101680006A3019F0862F90E008958FEF9FEF08954C
:10169000CF92DF92EF92FF920F931F93CF93DF933E
:1016A000EC01842F8770E1E0F0E0082E01C0EE0F1E
:1016B0000A94EAF73E2F7E0199E7E90EF11CD70163
:1016C0009C9110E0923018F41E2F913029F150E0D7
:1016D000487FE8ADF9ADC880D980D60150969C917D
:1016E000949F6001959FD00C11246C0D7D2D711D70
:1016F000DF01A60FB71F011115C08C91812B832725
:101700008D932150D1F7DF91CF911F910F91FF90D1
:10171000EF90DF90CF90089530E0D9CF110F330FC5
:10172000222389F39C91912B93279C938F5F877041
:1017300021508111F3CF9CADA90FB11DF70190810C
:10174000923028F4913009F031E011E0E9CF31E036
:10175000E7CF80E0089580E008959B01DC011896B2
:10176000ED91FC9141E067E109948091A002909194
:10177000A10201969093A1028093A0020895833064
:1017800081F028F4813099F08230A9F008958730F3
:10179000A9F08830C9F08430B1F4809180008F7D49
:1017A00003C0809180008F7780938000089584B576
:1017B0008F7784BD089584B58F7DFBCF8091B00075
:1017C0008F778093B00008958091B0008F7DF9CF1E
:1017D000CF93DF93282F30E0F901EA56FE4F849132
:1017E000F901E853FE4FD491F901EC54FE4FC49136
:1017F000CC23A1F081110E94BF0BEC2FF0E0EE0F83
:10180000FF1FE655FE4FA591B491EC91ED2381E0C9
:1018100090E009F480E0DF91CF91089580E090E0BE
:10182000FACF1F93CF93DF93282F30E0F901EA56C8
:10183000FE4F8491F901E853FE4FD491F901EC5425
:10184000FE4FC491CC23A9F0162F81110E94BF0B2B
:10185000EC2FF0E0EE0FFF1FE457FE4FA591B4917F
:101860008FB7F894EC91111108C0D095DE23DC936A
:101870008FBFDF91CF911F910895DE2BF8CFCF93CB
:10188000DF9390E0FC01E853FE4F24918C549E4F6F
:10189000FC0184918823C9F090E0880F991FFC0116
:1018A000EE57FE4FA591B491FC01E457FE4FC59150
:1018B000D49161110DC09FB7F8948C91209582232B
:1018C0008C938881282328839FBFDF91CF9108952F
:1018D000623051F49FB7F8943C91822F8095832316
:1018E0008C93E8812E2BEFCF8FB7F894EC912E2BB1
:1018F0002C938FBFEACF3FB7F894809198029091D4
:101900009902A0919A02B0919B0226B5A89B05C0AE
:101910002F3F19F00196A11DB11D3FBFBA2FA92F6E
:10192000982F8827BC01CD01620F711D811D911D6B
:1019300042E0660F771F881F991F4A95D1F70895D7
:101940008F929F92AF92BF92CF92DF92EF92FF92CF
:101950006B017C010E947B0C4B015C01C114D10422
:10196000E104F104B9F00E947B0C681979098A0935
:101970009B09683E73408105910580F321E0C21AFE
:10198000D108E108F10888EE880E83E0981EA11CBA
:10199000B11CE4CFFF90EF90DF90CF90BF90AF905D
:1019A0009F908F900895089520914B02260F332722
:1019B000331F21323105ECF420917102FC0190E0DB
:1019C00080E0243069F082E00895A0914B022191DB
:1019D000AC01475D5D4FA40FB52FB11D2C9301964F
:1019E000861798F380914B02680F60934B0280E05A
:1019F000089581E008951092710281E0809373024E
:101A00001092720261E082E10E94110C61E083E1B8
:101A10000E94110CE9EBF0E080818E7F8083808151
:101A20008D7F808388E48093B80085E48093BC0038
:101A30000895CF93DF9391E0909328028823B9F023
:101A4000C091B800D091BA008091BC008A7B80938D
:101A5000BC0060E082E10E94110C60E083E10E9422
:101A6000110C0E94FB0CD093BA00C093B800DF9118
:101A7000CF910895089508950895E09120028091EE
:101A80001F02E81730F4F0E0E150FE4F808190E053
:101A900008958FEF9FEF08959091200280911F028B
:101AA0002FEF3FEF981748F4E92FF0E0E150FE4F99
:101AB000208130E09F5F90932002C90108958091BA
:101AC0001F0290912002891B990B0895CF92DF92FB
:101AD000EF92FF920F931F93CF93DF937C01CB0183
:101AE0008A012091FE01222389F0EB016B01C40ED3
:101AF000D51ECC15DD0569F06991D701ED91FC91FA
:101B00000190F081E02DC7010995F3CF642F0E9469
:101B1000D40CC801DF91CF911F910F91FF90EF90EE
:101B2000DF90CF900895CF93DF931F92CDB7DEB7AC
:101B300069832091FE012223F9F0209121022032B5
:101B400058F021E030E0FC013383228390E080E014
:101B50000F90DF91CF91089580912202E82FF0E05D
:101B6000E252FE4F998190838F5F8093220280938F
:101B7000210281E090E0ECCF61E0CE0101960E946D
:101B8000D40CF7CFDC0180E0615090F09D91982754
:101B9000E92FEF70F0E0EE59FE4F2491E92FE29526
:101BA000EF70F0E0EE58FE4FE491822F8E27ECCFDD
:101BB0000895DC012C911196ED91FC91F8948181AE
:101BC000822B81839281322F30959323928387E0F9
:101BD00090E00197F1F781818323818383E290E094
:101BE0000197F1F790817894EFECF0E03197F1F7FD
:101BF000922381E009F480E00895FC019081018046
:101C0000F281E02D292F209560FF14C0F894828185
:101C1000822382838181892B8183A3E2B0E01197A3
:101C2000F1F78281982B9283789487ED90E0019769
:101C3000F1F70895F8948281822382838181892B30
:101C40008183AFEFB0E01197F1F78281982B9283F7
:101C500078948FE090E0EBCFDF92EF92FF920F93BA
:101C60001F93CF93DF93EC01D62EE42E08E010E013
:101C7000FF24F39461E08D2D8F2109F460E0CE0103
:101C80000E94FD0DFF0C01501109A1F7E11010C0D9
:101C9000F894E981FA8191818881809589238183F3
:101CA000E981FA8192818881809589238283789461
:101CB000DF91CF911F910F91FF90EF90DF900895EA
:101CC000FC0190810180F281E02DF8948181292F1F
:101CD00020958223818378943DE743E050E03150A2
:101CE00029F1DA011197F1F780818923C1F3F89482
:101CF0008281822382838181892B81837894ABE7DF
:101D0000B7E01197F1F7F894818182238183A3E1F1
:101D1000B1E01197F1F78081982381E009F080E02C
:101D20007894E3E6F6E03197F1F7089580E00895BE
:101D3000CF92DF92EF92FF928091BF069091C00602
:101D40000E94600E40E06CEC8091BF069091C0064E
:101D50000E942C0E4091B60664E48091BF069091DB
:101D6000C0060E942C0E8091BA06882389F1E0916A
:101D7000B9068091BB06882381F18091B606811156
:101D80002CC08FB7F894C090A602D090A702E09024
:101D9000A802F090A9028FBF8091BF069091C00663
:101DA0000E94D90D8130A1F02FB7F8948091A6023E
:101DB0009091A702A091A802B091A9022FBF8C19FF
:101DC0009D09AE09BF098E3E9240A105B10520F3E1
:101DD000FF90EF90DF90CF900895E9508EEE92E063
:101DE000E33038F4F0E0EE0FFF1FE759FE4F80813B
:101DF00091816C01990FEE08FF088091B706882346
:101E000029F060E08091B8060E94110CC701B6016C
:101E10000E94A00C8091B7068823D1F261E08091E6
:101E2000B806FF90EF90DF90CF900C94110CDC017E
:101E30001A96ED91FC9130E020E00994DC011696B1
:101E4000ED91FC9130E020E040E069E10994DC0193
:101E50001696ED91FC9130E020E040E068E10994B5
:101E60009A01DC011696ED91FC91462F67E10994E9
:101E7000EF92FF920F931F93CF93DF931F92CDB7F3
:101E8000DEB77C018B01D8016C91673129F150F4E8
:101E90006531A0F40F90DF91CF911F910F91FF90CA
:101EA000EF9008956A3118F16E3FA1F7F801418172
:101EB000498369E2C7010E94170F0BC0F8014181F5
:101EC0004983D7011696ED91FC9130E020E0C701DF
:101ED00009950E5F1F4FD7CFF80181818983AE012D
:101EE0004F5F5F4F61E0C7010E94300FF2CF0F5F7D
:101EF0001F4FD7011696ED91FC9130E020E040E0B5
:101F0000C7010995C0CF462FDC011696ED91FC91D3
:101F100030E020E066E10994462FDC011696ED9151
:101F2000FC9130E020E065E10994EF92FF920F937D
:101F30001F93CF93DF93EC01042F79016D3009F4E7
:101F400046C050F46B30C9F1693009F49FC06A3063
:101F500009F465C080E046C06E3009F452C06F30AD
:101F600099F70E94270FF7011381110F110F110F1D
:101F70006C89160F60E4CE010E948C0F612F629570
:101F80006F706061CE010E948C0F612F6F70CE0167
:101F90000E94830FF7016481606BCE010E94830F62
:101FA000F701408151816281660F660F660FCE0195
:101FB0000E94300F0150A1F72EC067E171E0442369
:101FC00011F062E171E0CE010E94380F0AC04111A8
:101FD00010C06BE071E00E94380FE881F9818289BE
:101FE0008C8B81E0DF91CF911F910F91FF90EF904B
:101FF000089564E071E00E94380FE881F9818389D7
:10200000EFCF0E94270F61E8CE010E948C0F602F56
:10201000CE010E94830FCE010E941E0FE2CFEA85FF
:10202000FB8530E020E040E068E2CE010995EE81DA
:10203000FF8130E020E040E064E1CE01099541E01D
:102040006BE4CE010E94170FE881F981448169E2B7
:10205000CE010E94170F40E06BE4CE010E94170FE3
:10206000E881F981448169E2CE010E94170F41E0C5
:102070006BE4CE010E94170FE881F981458169E286
:10208000CE010E94170F6CE171E09DCF81E591E0D8
:10209000998388831C8AA5CFDC011896ED91FC9169
:1020A00030E020E040E069E10994DC011896ED9110
:1020B000FC9130E020E040E068E10994CF93DF93A9
:1020C0001F92CDB7DEB76983BE016F5F7F4F0E945D
:1020D000AD0B0F90DF91CF910895EF92FF921F9378
:1020E000CF93DF93EC01162F7A010E94551060E424
:1020F000CE010E945E10E885F9859701412F67E1C6
:10210000CE010995CE01DF91CF911F91FF90EF9005
:102110000C944C10EF92FF921F93CF93DF93EC013E
:10212000142F7901663181F138F4643109F44BC020
:10213000653179F080E022C06831C9F150F1693130
:10214000C9F78091DD01882391F1CE010E944C10E6
:102150002EC08091DD01882319F0CE010E944C1021
:10216000CE010E94551060E0CE010E945E10612FEA
:10217000CE010E945E1081E08093DD01DF91CF915E
:102180001F91FF90EF900895642F0E945E1081E0F0
:10219000F5CF8091DD01882319F0CE010E944C100B
:1021A000A701193138F4612FCE010E946D101092F1
:1021B000DD01EDCF68E1CE010E946D10185188E17C
:1021C000E80EF11CEDCF8E898F3F11F488E78E8BDE
:1021D000E885F9859701412F64E1CE01DF91CF9128
:1021E0001F91FF90EF9009940F93DC01DE963C91D4
:1021F000DE97431BD496ED91FC9109950F910895BC
:10220000CF93DF93FC01A081B18182AD982F990F0C
:10221000990F990F95AF50969C915097903208F076
:102220009FE1990F990F990F94AF23AD922F990FBA
:10223000990F990F96AF51963C915197682F620F65
:102240007727771F3617170614F4832F821B97AF53
:10225000EF01C05CDF4F880F880F880F890F8883DC
:10226000219680EF888354968D919C915597813F5C
:10227000910508F48883EE5BFF4F56968C9180831E
:10228000DF91CF9108950F93FC01EB5BFF4F3081FD
:1022900031965081451730F4301738F0041728F084
:1022A00080E013C03017D0F3FBCFFC01ED5BFF4F94
:1022B00030818C5B9F4FFC018081681740F481E086
:1022C000321718F081E0261758F70F91089532174A
:1022D000C8F3E6CF2F923F924F925F926F927F9218
:1022E0008F929F92AF92BF92CF92DF92EF92FF9226
:1022F0000F931F93CF93DF93EC014C0183E4880E7F
:10230000911CF4011082329720805E01F4E4AF0E3C
:10231000B11CF50120823FAC6E01F5E4CF0ED11C5B
:10232000F6013082359740807E01F6E4EF0EF11C15
:10233000F701408234961081329760803196708028
:1023400032975080012F262D472D652DCE010E94FA
:102350004311CD58DF4F811114C01882DF91CF9106
:102360001F910F91FF90EF90DF90CF90BF90AF90B3
:102370009F908F907F906F905F904F903F902F90A5
:10238000089581E08883552011F0F4015082621491
:1023900010F4F5016082371410F4F6017082141500
:1023A000E8F6F7011083DACF0F93DC01802FFD01EF
:1023B000ED58FF4F90819923E9F12223D9F1223082
:1023C00020F0023079F56F5F621B082F0170FD016C
:1023D00080FD32C0EB5BFF4F8081481758F131968A
:1023E0008081481738F53297908131978081260F88
:1023F0002617F0F46917D8F42FEF290F8217D0F4BD
:10240000681708F4682F291708F4922F961BD696A0
:10241000ED91FC91D7970480F581E02D292FCD0116
:10242000099508C0033089F64F5F421BCECF682F55
:10243000691720F30F910895ED5BFF4F80816817B6
:10244000C8F3319680816817A8F73296908131974A
:102450008081240F241778F4491760F42FEF290F97
:10246000821740F7481708F4482F291708F4922FCD
:10247000941BCDCF482F4917E8F6F2CF0F939091D8
:1024800024076917A0F090912507691780F49091AF
:102490002207891760F090912307891740F4462F8F
:1024A000682F00E021E08FED96E00E94D4110F919B
:1024B0000895CF92DF92EF92FF920F931F93CF93E5
:1024C000DF93D82FC62FF42E042F081B2617D8F41D
:1024D000162F121B011708F1812F102F082FD12C56
:1024E000E12EE694CC24CA94C21710F4CC24C394F1
:1024F000FD16D8F4DF91CF911F910F91FF90EF90CF
:10250000DF90CF900895122F161B011728F7F22E97
:10251000242F8D2FD62FC82F05C0C42FF62E8D2F18
:10252000D22F282FDD24D394DBCF6C2F8D2FDD20ED
:1025300011F06D2F8C2F0E943E12E01AE7FE02C0B0
:10254000CC0DE10EDF5FD4CF213039F020F0223006
:1025500031F0840F0895860F0895841B0895861B1B
:102560000895213039F020F0223031F0861B089593
:10257000840F0895860F0895841B08955F926F92CB
:102580007F928F929F92AF92BF92CF92DF92EF9203
:10259000FF920F931F93CF93DF935C01162F642E4E
:1025A000EC01C15BDF4FDC80ED804C0189E7880ED8
:1025B000911CFE80FD18C12EF11608F4CF2C5B8013
:1025C0000C85202F4E2D6D2D8A810E94A412782E0D
:1025D000202F4E2D6D2D852D0E94B112482F662083
:1025E00071F08A85F40180832C2D672DC5010E942E
:1025F000D4111F1548F01F19E394D12CDACF898527
:102600008111F7CF8B85EECF1D0D1C83ED82DF91FD
:10261000CF911F910F91FF90EF90DF90CF90BF90DF
:10262000AF909F908F907F906F905F900895DC01A6
:1026300018964C911897ED91FC911197249130E0E8
:10264000042E02C0359527950A94E2F7842F860F51
:10265000883068F031961196FC93EE93E49198E0FF
:10266000941B01C0EE0F9A95EAF72E2B885018960E
:102670008C938FEF9FEF01C0880F6A95EAF78095E2
:1026800082230895FC01E60FF11D849190E0982FBC
:1026900088273196E4918E0F911D0895CF93DF9393
:1026A00020912A0730912B072817390709F490C089
:1026B000EC0190932B0780932A07FC01849180936F
:1026C0003B073196E491E0933C07FE013296E4919A
:1026D000E0933D07FE013396E491E0933E07FE014F
:1026E0003496E491E0933F07FE013596E491E09340
:1026F0004007FE013696E491E0934107FE013796CC
:10270000E491E0934207FE013896E491E093430799
:10271000FE013996E491E0934407FE013A96E49174
:10272000E0934507FE013B96E491E0934607FE01E6
:102730003C96E491E0934707FE013D96E491E093D7
:102740004807FE013E96E491E0934907FE013F965B
:10275000E491E0934A07FE017096E491E0934B0701
:1027600061E1CE010E94421390934D0780934C0784
:1027700063E1CE010E94421390934F0780934E076E
:1027800065E1CE010E944213909351078093500758
:1027900080912A0790912B07892BD1F080914807CF
:1027A00080935407409149074093550790915307F0
:1027B000992371F0913079F490914A07891714F4B4
:1027C0009093540780914B07841714F48093550716
:1027D000DF91CF9108953091450720914707082E4A
:1027E000000C990B622F022E000C770B630F711DEA
:1027F00037FD7A95861797071CF4320F30935407EC
:10280000241734F720935507E3CF6F927F928F926E
:102810009F92AF92BF92CF92DF92EF92FF920F936F
:102820001F93CF93DF93EC01062F142F7901FC0146
:10283000E55AFF4F8081813009F445C0D0F18230E4
:1028400009F44BC0833009F452C0FE01EF5AFF4F28
:1028500000833196108337978081918147962FEFBF
:10286000E216F10411F008F0E6C0E1E6EE16F1041C
:1028700008F447C0FE01E159FF4F20813181820FEA
:10288000931F9C012F5F3F4FF9014491411142C0BA
:10289000712C872DDF91CF911F910F91FF90EF90B9
:1028A000DF90CF90BF90AF909F908F907F906F9070
:1028B0000895FE01E35BFF4F0190F081E02DCE0112
:1028C0000995180FC2CFFE01E35BFF4F0190F08125
:1028D000E02DCE010995081BB8CFFE01E35BFF4F49
:1028E0000190F081E02DCE010995181BAECFFE01BD
:1028F000E35BFF4F0190F081E02DCE010995080FB9
:10290000A4CFF1E4EF16F10408F4BBCFFE01E359C4
:10291000FF4FB3CFFC0144914E151F0409F086C050
:102920000296009709F4B4CF7E01FFE4EF0EF11C8C
:10293000F70191838083108671966081C7010E94A0
:102940001713F701868372966081C7010E941713DF
:10295000A82EF70187836E01F9E7CF0ED11CF6018F
:102960009081F701928781E0911180E0F7018387E0
:10297000FE01EE59FF4FB0806B2DC7010E94171367
:10298000882EFE01ED59FF4F1081612FC7010E9473
:102990001713982EFE01EC59FF4F0081602FC701DD
:1029A0000E941713015041E050E09A0101C0220F2C
:1029B0000A95EAF7782E721AF701068110160CF0C4
:1029C00068CFBA94CA0101C0880FBA94EAF7881A8E
:1029D000B4849A0C115001C0440F1A95EAF7F42FF1
:1029E000F9199F2E2B2D4F2F682DF70182810E9400
:1029F000A412182FF70182832B2D492D682D838176
:102A00000E94B112F7018383F1E0BF1609F47CC084
:102A1000BF1608F43FC022E0B21609F47BC093E071
:102A2000B91609F482C0082F212F38C0F90124916A
:102A3000820F911D26CFFE01EF58FF4F00811181BB
:102A4000080F191F680160E0C6010E944213080FB9
:102A5000191F62E0C6010E944213F4E0CF0ED11CA0
:102A60008E159F0580F3F801849190E0982F8827B8
:102A70003196E4918E2B009709F40ACFE816F906F7
:102A800019F4C80103964DCFF8013296E4910E0F68
:102A9000111DE9CF202F210F082F0A0D482F612F7C
:102AA000CE010E944311882309F4F3CEF70114826A
:102AB00015828E01025A1F4F4E01FFE58F0E911CA9
:102AC000F8016081C7010E941713682EF40160812C
:102AD000C7010E941713B82E40E0662DCE010E9458
:102AE000BE1241E06B2DCE010E94BE1261E0C70113
:102AF0000E9417138111F0CFF70185818A1504F325
:102B00008285F6018083C5CEBA1821E0210F080F17
:102B10001B0DC4CF91E0392F301B21E0210F9A19F2
:102B200001E0080F890F130FB9CF212F2A0D982F1D
:102B3000901B01E0080F81E0890FB0CFFF920F9347
:102B40001F93CF93DF93C82FD62F1092F7068A01D9
:102B5000F12CF80161918F01E091E106F091E2061C
:102B60008FED96E009958F3F9807F1F08E3F2FEF9C
:102B7000920779F39C014D2F6C2F8FED96E00E9408
:102B8000051490913A07913049F030F0923041F0BD
:102B9000933041F0F80EDDCFC80FFCCFD80FFACF3D
:102BA000C81BF8CFD81BF6CF8F2DDF91CF911F9187
:102BB0000F91FF900895CF93DF93EC016BAFEEA9D7
:102BC000FFA90190F081E02D0995EEA9FFA90280EF
:102BD000F381E02DCE01DF91CF910994AF92BF92A6
:102BE000CF92DF92EF92FF920F931F93CF93DF93D9
:102BF00000D000D01F92CDB7DEB78C01DC01DA9691
:102C0000AC90DA97DB96EC90DB97ED91FC91B18874
:102C1000FE2CD12CC12CD801ED91FC91119780890B
:102C2000D8962D913C911C82FD828B83B8E08B9FBE
:102C3000C00111248C9DA0018D9D500D9C9D500DB7
:102C40001124240F351F3A832983D8011496ED915E
:102C5000FC919E012F5F3F4F41E06FE0C801099555
:102C6000F3948F2D8E198A1528F4BFEFCB1ADB0A47
:102C7000FB1488F20F900F900F900F900F90DF9140
:102C8000CF911F910F91FF90EF90DF90CF90BF9069
:102C9000AF900895CF92DF92EF92FF920F931F9320
:102CA000CF93DF93EC01962F683109F44BC0B90143
:102CB000993130F49431C9F0973189F080E006C041
:102CC000993109F461C09032C9F781E0DF91CF9169
:102CD0001F910F91FF90EF90DF90CF90089550E0FB
:102CE0008AEA92E00E94660DF0CF8C859D85AE85C4
:102CF000BF85892B8A2B8B2B71F4E881F981A585FF
:102D0000B0E020EA36E841E050E00E9427236C87DB
:102D10007D878E879F871092200210921F0210924B
:102D20002202109221020E94FB0C8AE39DE0909304
:102D30004A02809349028BE39DE090934E02809378
:102D40004D02C3CF2C853D854E855F8560E074E2E2
:102D500084EF90E00E940523205131094109510977
:102D600056954795379527952093B8008E8990E022
:102D70009595879591E09093FE018093DC011092E8
:102D8000220210922102A1CFD0912102D13208F06B
:102D900093C0C091DC010E947B0C6B017C0180918F
:102DA0007102811164C082E08093710281E080939E
:102DB00073028FEF8093700210929502D093940269
:102DC000AEEDB1E0E4E7F2E080E0D8137CC0109211
:102DD000960280919602CC0FC82BC09396028091E8
:102DE0007202813009F073C0109272020E947B0C53
:102DF0006B017C01809196028093BB00809124023C
:102E000090912502A0912602B0912702892B8A2B4E
:102E10008B2B99F00E947B0C0091240210912502CB
:102E200020912602309127026C197D098E099F0995
:102E30000617170728073907D8F18091BC0083FDD2
:102E4000D9CF85EC8093BC000E947B0C6B017C0188
:102E5000809171028230E9F1809170028F3F61F1BF
:102E600080917002803241F18091700225C0809182
:102E7000240290912502A0912602B0912702892B6D
:102E80008A2B8B2B09F48BCF0E947B0C00912402A0
:102E90001091250220912602309127026C197D099C
:102EA0008E099F09061717072807390708F077CFFB
:102EB000809123020E94190D109222021092210289
:102EC0001092FE0102CF9D9191938F5F7ECF85EE90
:102ED000B9CF8091240290912502A0912602B09151
:102EE0002702892B8A2B8B2B09F4B2CF0E947B0CF3
:102EF0000091240210912502209126023091270290
:102F00006C197D098E099F090617170728073907CD
:102F100008F09ECFCDCF0F931F93CF93DF938C01FB
:102F2000C62F642FCC32E8F4CA3208F041C0C83250
:102F300071F1C93209F442C080E0C034D0F1CF73DE
:102F4000F801EC0FF11D868D8F3F91F1C031E0F05B
:102F50000E94E80B21E0892B09F420E0F801218F81
:102F600027C0CD3289F140F384EB8C0F823020F7FB
:102F7000CF73C00FD12FD11D8E8D411133C061E0B1
:102F80000E943F0C60E08E8D0E94110C11C0025E09
:102F90001F4FD0E0F80181918F018F3F31F061E048
:102FA000D03108F062E00E943F0CDF5FD63191F72C
:102FB00081E0DF91CF911F910F91089570E090E033
:102FC00080E00E94A00CF4CF85E090E0433010F048
:102FD00082E090E0880F991F880F991F059701974D
:102FE000F1F7E6CF62E00E943F0CE2CFCF92DF9292
:102FF000EF92FF920F931F93CF93DF936C01EB013E
:103000007B01E40EF51E10E000E0CE15DF0561F057
:103010006991D601ED91FC910190F081E02DC601FE
:103020000995080F191FF1CFC801DF91CF911F91AA
:103030000F91FF90EF90DF90CF900895CF92DF92A5
:10304000EF92FF920F931F93CF93DF93EC016C01EC
:1030500024E0C20ED11CFC01E158FF4F0190F08129
:10306000E02DC60109958E3FEFEF9E07C8F48E0153
:103070000E571F4F7E01F1E8EF0EF11C9C01F80185
:103080004081F7016081C6010E940514C15ADF4FDB
:1030900098819130A9F078F09230A1F09330B9F096
:1030A00081E090E0DF91CF911F910F91FF90EF9021
:1030B000DF90CF900895F7019081890F8083F0CF42
:1030C000F801FACFF7019081981B892FF7CFF8010B
:1030D000FACF089590E080E008954F925F926F924A
:1030E0007F928F929F92AF92BF92CF92DF92EF9298
:1030F000FF920F931F93CF93DF93CDB7DEB7619706
:103100000FB6F894DEBF0FBECDBFE091BF06F091C1
:10311000C0061386158614861286118610861782BD
:1031200016821582148213820091BF061091C00688
:10313000D8011D968C918823F9F0F8011386158625
:10314000148660E070E08EEF92EC61960FB6F89412
:10315000DEBF0FBECDBFDF91CF911F910F91FF90CA
:10316000EF90DF90CF90BF90AF909F908F907F9027
:103170006F905F904F900895C8010E94600E81117A
:103180000AC0D8011B961C921B971D961C921D9776
:103190001C961C92D6CF40E060EFC8010E942C0E16
:1031A000DD24D394C12CB12CEE24E394C8010E94F9
:1031B000D90DF82EC8010E94D90DB1E0FB1283C0D1
:1031C000813009F0A2C0E0E4EE1508F0B6CFD801D6
:1031D0001B96BC921B97B11003C081E01D968C9387
:1031E000F8018381882309F4A8CF33967E014AE051
:1031F000E40EF11C055F1F4FD701670181918D938C
:103200000E171F07D9F767E0C7010E94C20D998901
:10321000891397CF8091BF069091C0060E94600EDF
:10322000882309F48ECF0091BF061091C00640E0BC
:1032300065E5C8010E942C0E570158E0A50EB11C8F
:10324000D7016D917D0140E0C8010E942C0EEA1467
:10325000FB04B1F740E06EEB8091BF069091C00691
:103260000E942C0E8E010F5F1F4F78012801809065
:10327000BF069090C006F8E06F2E712CB12CAA24E6
:10328000A394C4010E94D90D8111BA28AA0CB1E0FF
:103290006B1A7108B1F7F701B1927F01EC15FD05CA
:1032A00031F78091BF069091C0060E94600E813078
:1032B00009F047CFD8018D918D0181113DC0AE1528
:1032C000BF05C1F73ECFEC2DF0E0F81214C0D801D5
:1032D0001B968C911B97E816B0F4AE0FBF1F139688
:1032E0008C918D2191F4F12CB8E0BE1518F0D80125
:1032F0001C96EC92BE2CE00FF11F83819D2D9095C2
:10330000892383830AC08E11EECFF801EC0DF11DE5
:1033100083818D298383FF24F3946F2DC8010E943C
:10332000FD0DE394DD0C19F4C394DD24D394B7E0D0
:10333000BC1508F03BCF47CF68E0C2010E94C20D28
:1033400099858913FECE6A8170E0762F6627770F04
:10335000770F770F2981B8E02B9F90011124262B3E
:10336000372B8A858031E1F468856623C9F070E0E7
:103370008F81FB01E81BF109CF019695982F8827D3
:10338000979587950E94F122CB018097B90153E070
:10339000660F771F5A95E1F760789C01260F371F5B
:1033A0002138F4EE3F070CF4CCCEB901330F880B73
:1033B000990B0E94CF2120E030E040E05CE30E94C6
:1033C0000F22C3CE85ED8093BC00809124029091A2
:1033D0002502A0912602B09127020796A11DB11DDA
:1033E00023E0B695A795979587952A95D1F72091D3
:1033F000BC0024FD03C01092710208954091240284
:10340000509125026091260270912702452B462B90
:10341000472B69F30097A105B10541F025E32A95F3
:10342000F1F700000197A109B109E1CF80912302D2
:103430000C94190DFC01A081B18150962C9182ADA4
:1034400038E0839FC0011124289FA001299F500DBF
:10345000112470E060E080AD91AD0C945B231F936C
:10346000CF93DF93EC010E94EE151BAD8AAD180FD0
:10347000E881F9818189181768F0EC81FD8130E0DD
:1034800020E040E060E1CE01099580E0DF91CF913E
:103490001F910895FE01E658FF4F8081882319F09F
:1034A000CE010E941A1A612FCE010E94DB1581E025
:1034B000EDCFCF93DF93EC01FC01E658FF4F808105
:1034C000882319F0CE010E941A1A60E0CE01DF9124
:1034D000CF910C94DB151F920F920FB60F9211240F
:1034E0002F933F938F939F93AF93BF938091A602A7
:1034F0009091A702A091A802B091A90230919702E1
:1035000023E0230F2D3758F50196A11DB11D2093FF
:1035100097028093A6029093A702A093A802B0936B
:10352000A9028091980290919902A0919A02B0917B
:103530009B020196A11DB11D809398029093990260
:10354000A0939A02B0939B02BF91AF919F918F91EC
:103550003F912F910F900FBE0F901F90189526E866
:10356000230F0296A11DB11DD2CF1F920F920FB64D
:103570000F9211242F933F934F935F936F937F93F9
:103580008F939F93AF93BF93EF93FF93E0910201CB
:10359000F09103010995FF91EF91BF91AF919F9138
:1035A0008F917F916F915F914F913F912F910F90EC
:1035B0000FBE0F901F9018951F920F920FB60F928B
:1035C00011242F933F934F935F936F937F938F9328
:1035D0009F93AF93BF93EF93FF93E0910001F0911E
:1035E00001010995FF91EF91BF91AF919F918F914B
:1035F0007F916F915F914F913F912F910F900FBEEF
:103600000F901F9018951F920F920FB60F921124D2
:103610002F933F934F935F936F937F938F939F93DA
:10362000AF93BF93EF93FF938091B900887F80366B
:1036300009F44AC0F0F5883209F4A7C018F58031C2
:1036400009F49BC0B8F4882309F4F9C0883009F460
:1036500094C0FF91EF91BF91AF919F918F917F9116
:103660006F915F914F913F912F910F900FBE0F90EF
:103670001F901895883109F488C0803251F78093E3
:10368000700214C0803409F49DC040F48033B9F353
:103690008833F9F68093700285ECB0C0803509F468
:1036A00085C0883509F496C0883499F60E94E219DD
:1036B000D0CF883909F48CC038F5883729F050F418
:1036C000883611F0803729F683E0809371021092DA
:1036D0006F0257C0883809F47BC0803919F08038F0
:1036E00009F0B7CF80916F02803208F071C0E0918D
:1036F0006F0281E08E0F80936F028091BB00F0E03B
:10370000E15BFD4F80833DC0803B39F0E0F4803ABF
:1037100009F479C0883A09F09CCF84E08093710263
:1037200010924C0210924B02E0914902F0914A0231
:10373000099580914B0281110FC081E080934B026B
:103740001092290209C0803C09F4A6CF883C09F4F4
:10375000A3CF883B09F07DCFE0914C0281E08E0F32
:1037600080934C02F0E0E75DFD4F80818093BB00C9
:1037700090914C0280914B0229C0809196028093D7
:10378000BB0085EC8093BC0064CF90919502809142
:103790009402981758F5E091950281E08E0F80937E
:1037A0009502F0E0EC58FD4F8081E9CFE091950261
:1037B00081E08E0F809395028091BB00F0E0EC5881
:1037C000FD4F808390919502809194029817C8F2E2
:1037D00085E8D8CFE091950281E08E0F8093950225
:1037E0008091BB00F0E0EC58FD4F80838091730224
:1037F00081115CCF81E08093720284EA8093BC00E7
:103800001092710226CF85EC8093BC001092710259
:1038100080916F02803230F4E0916F02F0E0E15B62
:10382000FD4F108260916F0270E0E0914D02F091C7
:103830004E028FE492E0099510926F020ACF109227
:10384000700234CFCF93DF931092AD021092AC028E
:1038500088EE93E0A0E0B0E08093AE029093AF02D8
:10386000A093B002B093B10283E791E09093AB02D2
:103870008093AA0286E190E090935F0780935E07B1
:103880001092DE061092DD068EE39BE090935B07BC
:1038900080935A0710925C0710925D071092F7060A
:1038A00085E891E09093DC068093DB061092E006B9
:1038B0001092DF061092F4061092EB061092EC06BE
:1038C0001092ED061092EE068FEF8093F50680932E
:1038D000F906EDEFF6E0CFEFC19387E0E331F807AB
:1038E000D9F785E99FE09093E4068093E3068AE8A0
:1038F00090E19093E6068093E5068AE496E1909342
:10390000E8068093E7068BE897E19093EA068093B8
:10391000E90630E020E040E069E08FED96E00E94AB
:10392000950F10922B0710922A0788E49BE0909342
:1039300014078093130786EB92E090931807809307
:10394000170788E08093190710921A07109237071B
:1039500010925707D1E0D0935807D09359078DE8BC
:1039600091E090931607809315078FED96E00E94E3
:1039700000111092260710922807C0932707C093C2
:103980002907E0911507F09116070280F381E02DD9
:103990008FED96E009958BEA9BE090932D0780933D
:1039A0002C0710923A07C0930807C0930907C093E9
:1039B0000A0760E083E00E943F0CEBECF1E0E49149
:1039C000E093CD06E7EBF1E0E491F0E0EE0FFF1FAE
:1039D000E655FE4F859194919093CF068093CE0645
:1039E0001092D8061092DA061092D9061092D706D5
:1039F0001092D6061092D5061092D4061092D306D5
:103A00001092D2061092D1061092D0061092CC06D7
:103A10001092CB061092B7068DEC96E09093C006FC
:103A20008093BF061092BD061092BE061092B60695
:103A300089E08093B906D093BA06D093BB06D093A1
:103A4000BC06DF91CF910895CF93DF93CDB7DEB75A
:103A5000AD970FB6F894DEBF0FBECDBF789484B596
:103A6000826084BD84B5816084BD85B5826085BD7A
:103A700085B5816085BD80916E00816080936E0008
:103A800010928100809181008260809381008091FA
:103A900081008160809381008091800081608093AB
:103AA00080008091B10084608093B1008091B0006B
:103AB00081608093B00080917A00846080937A0066
:103AC00080917A00826080937A0080917A00816090
:103AD00080937A0080917A00806880937A001092B7
:103AE000C10061E084E00E943F0C61E084E00E943C
:103AF000110C61E085E00E943F0C61E085E00E94CE
:103B0000110C61E086E00E943F0C61E086E00E94BB
:103B1000110C61E087E00E943F0C61E087E00E94A9
:103B2000110C60E088E00E943F0C60E089E00E9498
:103B30003F0C60E082E00E943F0C61E082E00E9466
:103B4000110C85EB9BE09093010180930001809123
:103B50006900836080936900E89A78942FB7F8949D
:103B60008091A6029091A702A091A802B091A9020B
:103B70002FBF8093A2029093A302A093A402B093BC
:103B8000A502E091E306F091E40630E020E040E099
:103B90006AE08FED96E009958FED96E00E94591A44
:103BA0008FED96E00E942F1A8111FACF60E08FED21
:103BB00096E00E94DB15E091E306F091E40630E028
:103BC00020E040E06BE08FED96E009958CE3782EE5
:103BD0009DE5A92EB12C2EE3E22E2BE0F22E30E053
:103BE000C32E30E0D32E46E1842E912C8FB7F8946B
:103BF0004091A6025091A7026091A8027091A9027B
:103C00008FBF8091A2029091A302A091A402B091D3
:103C1000A50288519C4FAF4FBF4F481759076A07FD
:103C20007B0708F441C04093A2025093A302609323
:103C3000A4027093A5022091A0023091A102729E6D
:103C4000C001739E900D1124B5010E94F122709362
:103C50009F0260939E021092A1021092A0026E3108
:103C6000710508F0F4C060E085E00E94110C0E942C
:103C7000980E0E946D181B012C0160915E077091D7
:103C80005F07072E000C880B990B0E94CF219B0128
:103C9000AC01C201B1010E940A2260E018160CF0CA
:103CA00061E084E00E94110C0E94980E88E00E945E
:103CB000E80B8C0190939D0280939C0289E00E9406
:103CC000E80B0130110509F0C4C0009709F0D1C01C
:103CD00080915E0790915F07893191052CF40196E0
:103CE00090935F0780935E070E946D188E01015EBE
:103CF0001F4F21E042E00E94411F60919E0270919F
:103D00009F0290E080E00E94CD210F50110920E039
:103D100044E00E94411F60915E0770915F07072E8B
:103D2000000C880B990B0E94CF210F50110920E045
:103D300044E00E94411F8FED96E00E94591A81EAEB
:103D40009CE00E944E138FED96E00E941A1AF092AA
:103D5000E206E092E10643E951E06AE082E00E9477
:103D60009E152DE040E86DE080E00E9459128CED38
:103D700091E00E944E13F092E206E092E106AE015D
:103D8000415E5F4F63E282E00E949E15F092E20680
:103D9000E092E10644EA51E063E284E20E949E156B
:103DA00023E24BE367E187E30E945912F092E206B7
:103DB000E092E106AE01405F5F4F63E28EE30E9456
:103DC0009E15F092E206E092E10647EA51E063E2D6
:103DD0008CE50E949E152DE240E86DE280E00E9495
:103DE000591281EA9CE00E944E13F092E206E092A2
:103DF000E1064CEA51E06DE382E00E949E15F092EC
:103E0000E206E092E106AE014F5F5F4F6DE386E4AC
:103E10000E949E15F092E206E092E10644EA51E02B
:103E20006DE386E60E949E158FED96E00E942F1AA4
:103E3000811185CF6AE070E080E090E00E94A00CE4
:103E4000C114D10409F4D2CE0E940000CFCE61E0AB
:103E50000BCF019709F048CF012B09F045CF809196
:103E60005E0790915F07803191050CF43DCF01977B
:103E700037CF019709F038CF90925F0780925E07A5
:103E800033CFEF920F931F93CF93DF93E80134E08A
:103E900047FD34E1042E000C550B57FF03C051952C
:103EA00041955109E32E022F242FAE010E945F1F7E
:103EB000CE01DF91CF911F910F91EF900895A9E06E
:103EC000B0E0E5E6FFE10C949C216A01F22EB02EF1
:103ED000102FFBE3AF2EA01608F41BE31F5F012F8A
:103EE00027E0AE014F5F5F4F0E94BE20BC01898179
:103EF000982F9970913009F43FC09BE2E1FC04C017
:103F00009E2D9170E0FC3AC05E2D5071E82FE87054
:103F100083FF46C084E0911101C083E0EF2DE81BD0
:103F20008F1508F0E0E0D6018E2F20E2552351F1E5
:103F3000992329F0D6019C93C60101966C01960144
:103F40002D5F3F4FE2FE24C08EE4D6018C9391E4B6
:103F500011969C93119712968C93D9018E2F90E213
:103F600081111BC0E20FF32FF11D10828EEF9FEF26
:103F70002996ECE00C94B8219DE2C6CF90E2C4CF24
:103F80002D9381508111FCCFCE0ED11CE0E0D0CF1B
:103F90008EE6D6018C9391E6DBCF9D938150E0CFE6
:103FA000482F447082FF3DC084E0911101C083E03E
:103FB0008F1510F4EF2DE81BD6018E2F20E255232C
:103FC00009F1992329F0D6019C93C60101966C0151
:103FD00096012D5F3F4FE2FE1BC089E4D6018C9312
:103FE0008EE411968C93119786E412968C93D901E6
:103FF0008E2F90E2882309F4B5CF9D938150FACF9C
:104000002D9381508111FCCFCE0ED11CE0E0D9CF91
:1040100089E6D6018C938EE611968C93119786E6ED
:10402000E4CF9B0177FF02C030E020E0A1E0B0E0E8
:10403000911102C0B0E0A0E0F9013196AE0FBF1FB0
:104040008B2C912CBB2009F461C05401EFEFAE1A08
:10405000BE0AAA0DBB1DFA161B0619F014F04F2D4F
:104060004A1B511188C0E3FC59C07601A42FB0E26D
:10407000A1114FC0C40ED11C992309F45BC040E0CC
:10408000D6011196F60190836D01552309F448C0BD
:10409000012F060F9A81582F507184FF03C091336E
:1040A00009F4015010160CF047C0093008F008E080
:1040B000EEE2FE2E5B01A01AB10885019194819475
:1040C00091082F3F320729F4D601FC92F601319670
:1040D0006F016217730794F1021713077CF5DB0178
:1040E000A21BB30BAA24A394B12CAC0EBD1EAA0D27
:1040F000BB1D11968C9121503109D60111962815BE
:104100003905F4F0F60180836D01DBCFB12CA12CD1
:10411000A0CFF701B1937F01A150AACF9111B0CFE9
:10412000D601942F50E302C05D9391509111FCCFC2
:10413000C40ED11C40E0ACCF01E0BACF80E3DBCFAE
:104140006217730731F4963388F4953311F45523CD
:1041500069F0F6018083FD01842F90E2811108C08F
:10416000A40FB11D1C9290E080E002CF81E3F1CF5B
:1041700091938150F3CF911183CF8ACF283008F0EB
:1041800027E03327DA01990F311D87FD91600096F2
:104190006105710539F432602E5F3D9330E32A9555
:1041A000E1F708959F3F30F080387105610509F00F
:1041B0003C5F3C5F3D93913008F08068911DDF9338
:1041C000CF931F930F93FF92EF92192F987F96959D
:1041D000E92F96959695E90FFF27EE53FF4F992704
:1041E0003327EE24FF24A701E701059008940794E4
:1041F00028F4360FE71EF81E491F511D660F771F62
:10420000881F991F0694A1F70590079428F4E70EDC
:10421000F81E491F561FC11D770F881F991F661F63
:104220000694A1F70590079428F4F80E491F561F2D
:10423000C71FD11D880F991F661F771F0694A1F70E
:104240000590079420F4490F561FC71FD81F990FD8
:10425000661F771F881F0694A9F784911095177021
:1042600041F0D695C79557954795F794E7941A95D9
:10427000C1F7E8E6F0E068941590159135916591E5
:10428000959105907FE27395E118F10A430B560B67
:10429000C90BD009C0F7E10CF11E431F561FC91FFF
:1042A000D01D7EF4703311F48A95E6CFE894015066
:1042B00030F0080F0AF40027021708F4202F239586
:1042C000022F7A3328F079E37D932A95E9F710C01D
:1042D0007D932A9589F60694979567953795179556
:1042E0001794E118F10A430B560BC90BD00998F04B
:1042F00023957E9173957A3308F070E37C932013B5
:10430000B8F77E9170617D9330F0839571E37D9372
:1043100070E32A95E1F71124EF90FF900F911F9120
:10432000CF91DF91992787FD909508952F923F9225
:104330004F925F926F927F928F929F92AF92BF92B5
:10434000CF92DF92EF92FF920F931F93CF93DF9361
:10435000CDB7DEB7CA1BDB0B0FB6F894DEBF0FBEBE
:10436000CDBF09942A88398848885F846E847D840B
:104370008C849B84AA84B984C884DF80EE80FD800D
:104380000C811B81AA81B981CE0FD11D0FB6F89483
:10439000DEBF0FBECDBFED010895E89409C097FBC5
:1043A0003EF490958095709561957F4F8F4F9F4F0C
:1043B0009923A9F0F92F96E9BB279395F695879550
:1043C00077956795B795F111F8CFFAF4BB0F11F413
:1043D00060FF1BC06F5F7F4F8F4F9F4F16C08823BA
:1043E00011F096E911C0772321F09EE8872F762FF0
:1043F00005C0662371F096E8862F70E060E02AF031
:104400009A95660F771F881FDAF7880F969587951C
:1044100097F908950E947C2208F48FEF08950E9476
:1044200022220C94B7220E94A92238F00E94B022C6
:1044300020F0952311F00C94A0220C94A6221124B4
:104440000C94EB220E94C82270F3959FC1F3950F44
:1044500050E0551F629FF001729FBB27F00DB11D08
:10446000639FAA27F00DB11DAA1F649F6627B00D98
:10447000A11D661F829F2227B00DA11D621F739F81
:10448000B00DA11D621F839FA00D611D221F749F8F
:104490003327A00D611D231F849F600D211D822FD6
:1044A000762F6A2F11249F5750409AF0F1F08823FD
:1044B0004AF0EE0FFF1FBB1F661F771F881F91502A
:1044C0005040A9F79E3F510580F00C94A0220C9417
:1044D000EB225F3FE4F3983ED4F38695779567959A
:1044E000B795F795E7959F5FC1F7FE2B880F911D54
:1044F0009695879597F90895990F0008550FAA0B7F
:10450000E0E8FEEF16161706E807F907C0F01216E6
:104510001306E407F50798F0621B730B840B950BE9
:1045200039F40A2661F0232B242B252B21F408953E
:104530000A2609F4A140A6958FEF811D811D0895DB
:1045400097F99F6780E870E060E008959FEF80EC46
:10455000089500240A9416161706180609060895E9
:1045600000240A9412161306140605060895092E4F
:104570000394000C11F4882352F0BB0F40F4BF2BBE
:1045800011F460FF04C06F5F7F4F8F4F9F4F0895FE
:1045900057FD9058440F551F59F05F3F71F04795F4
:1045A000880F97FB991F61F09F3F79F087950895D9
:1045B000121613061406551FF2CF4695F1DF08C0F8
:1045C000161617061806991FF1CF86957105610515
:1045D00008940895E894BB2766277727CB0197F9BD
:1045E000089597FB072E16F4009407D077FD09D0A5
:1045F0000E94322307FC05D03EF4909581959F4F91
:104600000895709561957F4F0895A1E21A2EAA1B17
:10461000BB1BFD010DC0AA1FBB1FEE1FFF1FA21772
:10462000B307E407F50720F0A21BB30BE40BF50B6F
:10463000661F771F881F991F1A9469F760957095F8
:10464000809590959B01AC01BD01CF0108950E941A
:104650004C23A59F900DB49F900DA49F800D911D9C
:1046600011240895AA1BBB1B51E107C0AA1FBB1F41
:10467000A617B70710F0A61BB70B881F991F5A95EE
:10468000A9F780959095BC01CD010895EE0FFF1F0D
:104690000590F491E02D0994A29FB001B39FC00151
:1046A000A39F700D811D1124911DB29F700D811D5E
:1046B0001124911D0895DC0101C06D9341505040BB
:1046C000E0F70895F894FFCFD30CD30C1815A0157C
:1046D000C019FF1815A115C819FF1815AE19FF1834
:1046E00015AF19FF1815AE15D5168015A8163F156C
:1046F000D316001540158D16141520160015A1159A
:10470000C815DA1612158116CF15D916F115DB1654
:1047100040152E15A415A619FF0001140A64643271
:104720003200127A00000428961008000080004031
:10473000005E00BC00770100000000930D660D6A6A
:10474000183C0D5F0D4C0D3D0D000000001E18F6CD
:10475000176A18691800116A11F4102020202D4BD7
:10476000343020446973706C61792D00B0430020AF
:104770006C2F68007365742054656D70203D2000B7
:107800000C94343C0C94513C0C94513C0C94513CE1
:107810000C94513C0C94513C0C94513C0C94513CB4
:107820000C94513C0C94513C0C94513C0C94513CA4
:107830000C94513C0C94513C0C94513C0C94513C94
:107840000C94513C0C94513C0C94513C0C94513C84
:107850000C94513C0C94513C0C94513C0C94513C74
:107860000C94513C0C94513C11241FBECFEFD8E036
:10787000DEBFCDBF11E0A0E0B1E0ECE9FFE702C060
:1078800005900D92A230B107D9F712E0A2E0B1E065
:1078900001C01D92AD30B107E1F70E942D3D0C945F
:1078A000CC3F0C94003C982F959595959595959582
:1078B000905D8F708A307CF0282F295A8091C0000B
:1078C00085FFFCCF9093C6008091C00085FFFCCF60
:1078D0002093C6000895282F205DF0CF982F809127
:1078E000C00085FFFCCF9093C6000895EF92FF92F1
:1078F0000F931F93EE24FF2487018091C00087FD22
:1079000017C00894E11CF11C011D111D81E4E8164B
:1079100082E4F8068FE0080780E0180770F3E09132
:107920000401F091050109958091C00087FFE9CF1E
:107930008091C6001F910F91FF90EF9008950E94D3
:10794000763C982F8091C00085FFFCCF9093C600B5
:1079500091362CF490330CF09053892F089597555D
:10796000892F08951F930E949F3C182F0E949F3CCF
:107970001295107F810F1F9108951F93182F882350
:1079800021F00E94763C1150E1F71F9108951F935A
:10799000182F0E94763C803249F0809103018F5F5E
:1079A000809303018530C1F01F9108958091C0003C
:1079B00085FFFCCF84E18093C6008091C00085FFE5
:1079C000FCCF1093C6008091C00085FFFCCF80E102
:1079D0008093C6001F910895E0910401F091050184
:1079E00009951F9108950E94763C803241F0809164
:1079F00003018F5F80930301853081F008958091AA
:107A0000C00085FFFCCF84E18093C6008091C00058
:107A100085FFFCCF80E18093C6000895E0910401CA
:107A2000F09105010995089540E951E08823A1F0FE
:107A30002D9A28EE33E0FA013197F1F721503040CA
:107A4000D1F72D9828EE33E0FA013197F1F7215064
:107A50003040D1F7815061F708953F924F925F9285
:107A60006F927F928F929F92AF92BF92CF92DF924E
:107A7000EF92FF920F931F93CF93DF93000080E16B
:107A80008093C4001092C50088E18093C10086E015
:107A90008093C2005098589A259A81E00E94143D24
:107AA00024E1F22E9EE1E92E85E9D82E0FE0C02ECA
:107AB00010E1B12EAA24A394B1E49B2EA6E58A2E50
:107AC000F2E57F2EE0E26E2E79E4572E63E5462E36
:107AD00050E5352E0E94763C8033B1F18133B9F107
:107AE000803409F46FC0813409F476C0823409F41B
:107AF00085C0853409F488C0803531F1823521F1A3
:107B0000813511F1853509F485C0863509F48DC0BC
:107B1000843609F496C0843709F403C1853709F423
:107B200072C1863709F466C0809103018F5F80932C
:107B30000301853079F6E0910401F0910501099582
:107B40000E94763C803351F60E94F33CC3CF0E94E2
:107B5000763C803249F78091C00085FFFCCFF092DF
:107B6000C6008091C00085FFFCCF9092C600809136
:107B7000C00085FFFCCF8092C6008091C00085FFC9
:107B8000FCCF7092C6008091C00085FFFCCF609250
:107B9000C6008091C00085FFFCCF5092C600809146
:107BA000C00085FFFCCF4092C6008091C00085FFD9
:107BB000FCCF3092C6008091C00085FFFCCFB09210
:107BC000C60088CF0E94763C863808F4BDCF0E945C
:107BD000763C0E94F33C7ECF0E94763C803809F4CC
:107BE0009CC0813809F40BC1823809F43CC1883942
:107BF00009F48FC080E00E94C73C6CCF84E10E94F2
:107C0000BD3C0E94F33C66CF85E00E94BD3C0E94D3
:107C1000F33C60CF0E94763C809306010E94763C44
:107C2000809307010E94F33C55CF0E94763C80333D
:107C300009F41DC183E00E94BD3C80E00E94C73C66
:107C400049CF0E94763C809309020E94763C809343
:107C5000080280910C028E7F80930C020E94763C79
:107C6000853409F415C18091080290910902892B8D
:107C700089F000E010E00E94763CF801E85FFE4FDA
:107C800080830F5F1F4F80910802909109020817AF
:107C9000190788F30E94763C803209F045CF809125
:107CA0000C0280FF01C16091060170910701660F0F
:107CB000771F7093070160930601A0910802B091AD
:107CC00009021097C9F0E8E0F1E09B01AD014E0F09
:107CD0005F1FF999FECF32BD21BD819180BDFA9A17
:107CE000F99A2F5F3F4FE417F50799F76A0F7B1F4B
:107CF00070930701609306018091C00085FFFCCF5F
:107D0000F092C6008091C00085FFFCCFB092C60003
:107D1000E1CE83E00E94C73CDDCE82E00E94C73CFA
:107D2000D9CE0E94763C809309020E94763C8093D3
:107D300008028091060190910701880F991F909386
:107D40000701809306010E94763C853409F4A6C0A1
:107D500080910C028E7F80930C020E94763C8032D0
:107D600009F0B8CE8091C00085FFFCCFF092C6002C
:107D7000609108027091090261157105B9F140E046
:107D800050E080910C02A82FA170B82FB27011C0E2
:107D9000BB2309F45CC0E0910601F0910701319624
:107DA000F0930701E09306014F5F5F4F46175707B7
:107DB000E8F4AA2369F3F999FECF209106013091E6
:107DC000070132BD21BDF89A90B58091C00085FFB2
:107DD000FCCF9093C6002F5F3F4F30930701209355
:107DE00006014F5F5F4F4617570718F38091C00099
:107DF00085FDE5CE8091C00085FFF8CFE0CE81E023
:107E00000E94C73C67CE0E94763C803209F08CCE3F
:107E10008091C00085FFFCCFF092C6008091C00029
:107E200085FFFCCFE092C6008091C00085FFFCCFAB
:107E3000D092C6008091C00085FFFCCFC092C600E2
:107E40008091C00085FFFCCFB092C60043CEE09188
:107E50000601F091070194918091C00085FFFCCF4D
:107E60009093C6009CCF80E10E94C73C33CE0E9415
:107E7000763C0E94763C182F0E94763C112309F430
:107E800083C0113009F484C08FE00E94C73C22CE29
:107E900080910C02816080930C02E5CE80910C02EF
:107EA000816080930C0259CF809107018823880F4D
:107EB000880B8A2180930B02809106019091070123
:107EC000880F991F90930701809306018091080203
:107ED00080FF09C080910802909109020196909359
:107EE000090280930802F894F999FECF1127E091D6
:107EF0000601F0910701C8E0D1E08091080290915D
:107F00000902103091F40091570001700130D9F34B
:107F100003E000935700E89500915700017001308D
:107F2000D9F301E100935700E89509901990009169
:107F3000570001700130D9F301E000935700E89534
:107F40001395103498F011270091570001700130FB
:107F5000D9F305E000935700E895009157000170B0
:107F60000130D9F301E100935700E895329602976A
:107F700009F0C7CF103011F00296E5CF112480919F
:107F8000C00085FFB9CEBCCE8EE10E94C73CA2CD19
:0E7F900085E90E94C73C9ECDF894FFCF80008B
:00000001FF
